{
  "abi": [
    {
      "inputs": [
        {
          "internalType": "address[]",
          "name": "assets",
          "type": "address[]"
        },
        {
          "internalType": "uint256[]",
          "name": "amounts",
          "type": "uint256[]"
        },
        {
          "internalType": "uint256[]",
          "name": "premiums",
          "type": "uint256[]"
        },
        {
          "internalType": "address",
          "name": "initiator",
          "type": "address"
        },
        {
          "internalType": "bytes",
          "name": "",
          "type": "bytes"
        }
      ],
      "name": "executeOperation",
      "outputs": [
        {
          "internalType": "bool",
          "name": "",
          "type": "bool"
        }
      ],
      "stateMutability": "nonpayable",
      "type": "function"
    },
    {
      "inputs": [
        {
          "internalType": "address[]",
          "name": "assets",
          "type": "address[]"
        },
        {
          "internalType": "uint256[]",
          "name": "amounts",
          "type": "uint256[]"
        },
        {
          "internalType": "uint256[]",
          "name": "modes",
          "type": "uint256[]"
        }
      ],
      "name": "flashLoan",
      "outputs": [],
      "stateMutability": "nonpayable",
      "type": "function"
    }
  ],
  "bytecode": {
    "object": "0x608060405234801561001057600080fd5b506105aa806100206000396000f3fe608060405234801561001057600080fd5b50600436106100365760003560e01c80632a16bfde1461003b578063920f5c8414610050575b600080fd5b61004e610049366004610272565b610077565b005b61006361005e366004610327565b6100f9565b604051901515815260200160405180910390f35b60405163ab9c4b5d60e01b8152737d2768de32b0b80b7a3454c06bdac94a69ddc7a99063ab9c4b5d906100bf9030908a908a908a908a908a908a90879060009060040161045c565b600060405180830381600087803b1580156100d957600080fd5b505af11580156100ed573d6000803e3d6000fd5b50505050505050505050565b600033737d2768de32b0b80b7a3454c06bdac94a69ddc7a91461011b57600080fd5b6001600160a01b038416301461013057600080fd5b8989600081811061014357610143610515565b9050602002016020810190610158919061052b565b6001600160a01b031663095ea7b3737d2768de32b0b80b7a3454c06bdac94a69ddc7a98888600081811061018e5761018e610515565b905060200201358b8b60008181106101a8576101a8610515565b905060200201356101b9919061054d565b6040516001600160e01b031960e085901b1681526001600160a01b0390921660048301526024820152604401600060405180830381600087803b1580156101ff57600080fd5b505af1158015610213573d6000803e3d6000fd5b5060019d9c50505050505050505050505050565b60008083601f84011261023957600080fd5b5081356001600160401b0381111561025057600080fd5b6020830191508360208260051b850101111561026b57600080fd5b9250929050565b6000806000806000806060878903121561028b57600080fd5b86356001600160401b03808211156102a257600080fd5b6102ae8a838b01610227565b909850965060208901359150808211156102c757600080fd5b6102d38a838b01610227565b909650945060408901359150808211156102ec57600080fd5b506102f989828a01610227565b979a9699509497509295939492505050565b80356001600160a01b038116811461032257600080fd5b919050565b600080600080600080600080600060a08a8c03121561034557600080fd5b89356001600160401b038082111561035c57600080fd5b6103688d838e01610227565b909b50995060208c013591508082111561038157600080fd5b61038d8d838e01610227565b909950975060408c01359150808211156103a657600080fd5b6103b28d838e01610227565b90975095508591506103c660608d0161030b565b945060808c01359150808211156103dc57600080fd5b818c0191508c601f8301126103f057600080fd5b8135818111156103ff57600080fd5b8d602082850101111561041157600080fd5b6020830194508093505050509295985092959850929598565b81835260006001600160fb1b0383111561044357600080fd5b8260051b80836020870137939093016020019392505050565b6001600160a01b038a8116825260e060208084018290529083018a90526000918b916101008501845b8d8110156104aa57836104978661030b565b1682529382019390820190600101610485565b5085810360408701526104be818c8e61042a565b935050505082810360608401526104d681878961042a565b6001600160a01b038616608085015283810360a08501526000815261ffff851660c085015260200191506105079050565b9a9950505050505050505050565b634e487b7160e01b600052603260045260246000fd5b60006020828403121561053d57600080fd5b6105468261030b565b9392505050565b8082018082111561056e57634e487b7160e01b600052601160045260246000fd5b9291505056fea2646970667358221220fb5084087a8979288901c208c00d9b1e8ac7573b146dce0a383c907601d816e364736f6c63430008120033",
    "linkReferences": {}
  },
  "methodIdentifiers": {
    "executeOperation(address[],uint256[],uint256[],address,bytes)": "920f5c84",
    "flashLoan(address[],uint256[],uint256[])": "2a16bfde"
  },
  "id": 16
}