{
  "abi": [
    {
      "inputs": [],
      "name": "excludeArtifacts",
      "outputs": [
        {
          "internalType": "string[]",
          "name": "excludedArtifacts_",
          "type": "string[]"
        }
      ],
      "stateMutability": "view",
      "type": "function"
    },
    {
      "inputs": [],
      "name": "excludeContracts",
      "outputs": [
        {
          "internalType": "address[]",
          "name": "excludedContracts_",
          "type": "address[]"
        }
      ],
      "stateMutability": "view",
      "type": "function"
    },
    {
      "inputs": [],
      "name": "excludeSenders",
      "outputs": [
        {
          "internalType": "address[]",
          "name": "excludedSenders_",
          "type": "address[]"
        }
      ],
      "stateMutability": "view",
      "type": "function"
    },
    {
      "inputs": [],
      "name": "targetArtifactSelectors",
      "outputs": [
        {
          "components": [
            {
              "internalType": "address",
              "name": "addr",
              "type": "address"
            },
            {
              "internalType": "bytes4[]",
              "name": "selectors",
              "type": "bytes4[]"
            }
          ],
          "internalType": "struct StdInvariant.FuzzSelector[]",
          "name": "targetedArtifactSelectors_",
          "type": "tuple[]"
        }
      ],
      "stateMutability": "view",
      "type": "function"
    },
    {
      "inputs": [],
      "name": "targetArtifacts",
      "outputs": [
        {
          "internalType": "string[]",
          "name": "targetedArtifacts_",
          "type": "string[]"
        }
      ],
      "stateMutability": "view",
      "type": "function"
    },
    {
      "inputs": [],
      "name": "targetContracts",
      "outputs": [
        {
          "internalType": "address[]",
          "name": "targetedContracts_",
          "type": "address[]"
        }
      ],
      "stateMutability": "view",
      "type": "function"
    },
    {
      "inputs": [],
      "name": "targetSelectors",
      "outputs": [
        {
          "components": [
            {
              "internalType": "address",
              "name": "addr",
              "type": "address"
            },
            {
              "internalType": "bytes4[]",
              "name": "selectors",
              "type": "bytes4[]"
            }
          ],
          "internalType": "struct StdInvariant.FuzzSelector[]",
          "name": "targetedSelectors_",
          "type": "tuple[]"
        }
      ],
      "stateMutability": "view",
      "type": "function"
    },
    {
      "inputs": [],
      "name": "targetSenders",
      "outputs": [
        {
          "internalType": "address[]",
          "name": "targetedSenders_",
          "type": "address[]"
        }
      ],
      "stateMutability": "view",
      "type": "function"
    }
  ],
  "bytecode": {
    "object": "0x608060405234801561001057600080fd5b506107e6806100206000396000f3fe608060405234801561001057600080fd5b50600436106100785760003560e01c80631ed7831c1461007d5780633e5e3c231461009b5780633f7286f4146100a357806366d9a9a0146100ab57806385226c81146100c0578063916a17c6146100d5578063b5508aa9146100dd578063e20c9f71146100e5575b600080fd5b6100856100ed565b60405161009291906105e4565b60405180910390f35b61008561014f565b6100856101af565b6100b361020f565b6040516100929190610631565b6100c86102fe565b60405161009291906106e4565b6100b36103ce565b6100c86104b4565b610085610584565b6060600180548060200260200160405190810160405280929190818152602001828054801561014557602002820191906000526020600020905b81546001600160a01b03168152600190910190602001808311610127575b5050505050905090565b60606003805480602002602001604051908101604052809291908181526020018280548015610145576020028201919060005260206000209081546001600160a01b03168152600190910190602001808311610127575050505050905090565b60606002805480602002602001604051908101604052809291908181526020018280548015610145576020028201919060005260206000209081546001600160a01b03168152600190910190602001808311610127575050505050905090565b60606006805480602002602001604051908101604052809291908181526020016000905b828210156102f55760008481526020908190206040805180820182526002860290920180546001600160a01b031683526001810180548351818702810187019094528084529394919385830193928301828280156102dd57602002820191906000526020600020906000905b82829054906101000a900460e01b6001600160e01b0319168152602001906004019060208260030104928301926001038202915080841161029f5790505b50505050508152505081526020019060010190610233565b50505050905090565b60606005805480602002602001604051908101604052809291908181526020016000905b828210156102f557838290600052602060002001805461034190610776565b80601f016020809104026020016040519081016040528092919081815260200182805461036d90610776565b80156103ba5780601f1061038f576101008083540402835291602001916103ba565b820191906000526020600020905b81548152906001019060200180831161039d57829003601f168201915b505050505081526020019060010190610322565b60606007805480602002602001604051908101604052809291908181526020016000905b828210156102f55760008481526020908190206040805180820182526002860290920180546001600160a01b0316835260018101805483518187028101870190945280845293949193858301939283018282801561049c57602002820191906000526020600020906000905b82829054906101000a900460e01b6001600160e01b0319168152602001906004019060208260030104928301926001038202915080841161045e5790505b505050505081525050815260200190600101906103f2565b60606004805480602002602001604051908101604052809291908181526020016000905b828210156102f55783829060005260206000200180546104f790610776565b80601f016020809104026020016040519081016040528092919081815260200182805461052390610776565b80156105705780601f1061054557610100808354040283529160200191610570565b820191906000526020600020905b81548152906001019060200180831161055357829003601f168201915b5050505050815260200190600101906104d8565b60606000805480602002602001604051908101604052809291908181526020018280548015610145576020028201919060005260206000209081546001600160a01b03168152600190910190602001808311610127575050505050905090565b6020808252825182820181905260009190848201906040850190845b818110156106255783516001600160a01b031683529284019291840191600101610600565b50909695505050505050565b60006020808301818452808551808352604092508286019150828160051b8701018488016000805b848110156106d557898403603f19018652825180516001600160a01b03168552880151888501889052805188860181905290890190839060608701905b808310156106c05783516001600160e01b0319168252928b019260019290920191908b0190610696565b50978a01979550505091870191600101610659565b50919998505050505050505050565b6000602080830181845280855180835260408601915060408160051b87010192508387016000805b8381101561076857888603603f1901855282518051808852835b81811015610741578281018a01518982018b01528901610726565b508781018901849052601f01601f191690960187019550938601939186019160010161070c565b509398975050505050505050565b600181811c9082168061078a57607f821691505b6020821081036107aa57634e487b7160e01b600052602260045260246000fd5b5091905056fea2646970667358221220b83b70e14b6d953c1de9f7e5ac18ff96469c5666c2ed0dc383c8783c16c90bef64736f6c63430008120033",
    "linkReferences": {}
  },
  "methodIdentifiers": {
    "excludeArtifacts()": "b5508aa9",
    "excludeContracts()": "e20c9f71",
    "excludeSenders()": "1ed7831c",
    "targetArtifactSelectors()": "66d9a9a0",
    "targetArtifacts()": "85226c81",
    "targetContracts()": "3f7286f4",
    "targetSelectors()": "916a17c6",
    "targetSenders()": "3e5e3c23"
  },
  "id": 6
}