{
  "abi": [
    {
      "inputs": [
        {
          "internalType": "uint256",
          "name": "amount",
          "type": "uint256"
        }
      ],
      "name": "flashLoan",
      "outputs": [],
      "stateMutability": "nonpayable",
      "type": "function"
    },
    {
      "inputs": [
        {
          "internalType": "bytes",
          "name": "data",
          "type": "bytes"
        }
      ],
      "name": "onFlashLoan",
      "outputs": [],
      "stateMutability": "nonpayable",
      "type": "function"
    }
  ],
  "bytecode": {
    "object": "0x608060405234801561001057600080fd5b506103a9806100206000396000f3fe608060405234801561001057600080fd5b50600436106100365760003560e01c80639ab603b91461003b578063c4850ea814610050575b600080fd5b61004e6100493660046101c2565b610063565b005b61004e61005e3660046101f1565b61010f565b7362e28f054efc24b26a794f5c1249b6349454352c6001600160a01b0316635296a4318273c02aaa39b223fe8d0a0e5c4f27ead9083c756cc2846040516020016100ae9291906102a1565b6040516020818303038152906040526040518363ffffffff1660e01b81526004016100da9291906102ba565b600060405180830381600087803b1580156100f457600080fd5b505af1158015610108573d6000803e3d6000fd5b5050505050565b337327182842e098f60e3d576794a5bffb0777e025d31461012f57600080fd5b600080828060200190518101906101469190610310565b60405163a9059cbb60e01b815291935091506001600160a01b0383169063a9059cbb9061017990339085906004016102a1565b6020604051808303816000875af1158015610198573d6000803e3d6000fd5b505050506040513d601f19601f820116820180604052508101906101bc919061034a565b50505050565b6000602082840312156101d457600080fd5b5035919050565b634e487b7160e01b600052604160045260246000fd5b60006020828403121561020357600080fd5b81356001600160401b038082111561021a57600080fd5b818401915084601f83011261022e57600080fd5b813581811115610240576102406101db565b604051601f8201601f19908116603f01168101908382118183101715610268576102686101db565b8160405282815287602084870101111561028157600080fd5b826020860160208301376000928101602001929092525095945050505050565b6001600160a01b03929092168252602082015260400190565b82815260006020604081840152835180604085015260005b818110156102ee578581018301518582016060015282016102d2565b506000606082860101526060601f19601f830116850101925050509392505050565b6000806040838503121561032357600080fd5b82516001600160a01b038116811461033a57600080fd5b6020939093015192949293505050565b60006020828403121561035c57600080fd5b8151801515811461036c57600080fd5b939250505056fea2646970667358221220f8f0fa6a31711442af6ac956df2ed38f40449df2200ad0fcb08066c96a66247e64736f6c63430008120033",
    "linkReferences": {}
  },
  "methodIdentifiers": {
    "flashLoan(uint256)": "9ab603b9",
    "onFlashLoan(bytes)": "c4850ea8"
  },
  "id": 18
}