{
  "abi": [
    {
      "inputs": [
        {
          "internalType": "address[]",
          "name": "tokens",
          "type": "address[]"
        },
        {
          "internalType": "uint256[]",
          "name": "amounts",
          "type": "uint256[]"
        }
      ],
      "name": "flashLoan",
      "outputs": [],
      "stateMutability": "nonpayable",
      "type": "function"
    },
    {
      "inputs": [
        {
          "internalType": "contract IERC20[]",
          "name": "tokens",
          "type": "address[]"
        },
        {
          "internalType": "uint256[]",
          "name": "amounts",
          "type": "uint256[]"
        },
        {
          "internalType": "uint256[]",
          "name": "",
          "type": "uint256[]"
        },
        {
          "internalType": "bytes",
          "name": "",
          "type": "bytes"
        }
      ],
      "name": "receiveFlashLoan",
      "outputs": [],
      "stateMutability": "payable",
      "type": "function"
    }
  ],
  "bytecode": {
    "object": "0x608060405234801561001057600080fd5b506104d2806100206000396000f3fe6080604052600436106100295760003560e01c8063db5dce161461002e578063f04f270714610050575b600080fd5b34801561003a57600080fd5b5061004e610049366004610226565b610063565b005b61004e61005e366004610291565b6100da565b604051632e1c224f60e11b815273ba12222222228d8ba445958a75a0704d566bf2c890635c38449e906100a29030908890889088908890600401610399565b600060405180830381600087803b1580156100bc57600080fd5b505af11580156100d0573d6000803e3d6000fd5b5050505050505050565b3373ba12222222228d8ba445958a75a0704d566bf2c8146100fa57600080fd5b8787600081811061010d5761010d610440565b90506020020160208101906101229190610456565b6001600160a01b031663a9059cbb73ba12222222228d8ba445958a75a0704d566bf2c88888600081811061015857610158610440565b6040516001600160e01b031960e087901b1681526001600160a01b03909416600485015260200291909101356024830152506044016020604051808303816000875af11580156101ac573d6000803e3d6000fd5b505050506040513d601f19601f820116820180604052508101906101d0919061047a565b505050505050505050565b60008083601f8401126101ed57600080fd5b5081356001600160401b0381111561020457600080fd5b6020830191508360208260051b850101111561021f57600080fd5b9250929050565b6000806000806040858703121561023c57600080fd5b84356001600160401b038082111561025357600080fd5b61025f888389016101db565b9096509450602087013591508082111561027857600080fd5b50610285878288016101db565b95989497509550505050565b6000806000806000806000806080898b0312156102ad57600080fd5b88356001600160401b03808211156102c457600080fd5b6102d08c838d016101db565b909a50985060208b01359150808211156102e957600080fd5b6102f58c838d016101db565b909850965060408b013591508082111561030e57600080fd5b61031a8c838d016101db565b909650945060608b013591508082111561033357600080fd5b818b0191508b601f83011261034757600080fd5b81358181111561035657600080fd5b8c602082850101111561036857600080fd5b6020830194508093505050509295985092959890939650565b6001600160a01b038116811461039657600080fd5b50565b6001600160a01b03868116825260806020808401829052908301869052600091879160a08501845b898110156103e85784356103d481610381565b8416825293820193908201906001016103c1565b5085810360408701528681526001600160fb1b0387111561040857600080fd5b8660051b935083888383013790920184810383016060860152916104328184016000815260200190565b9a9950505050505050505050565b634e487b7160e01b600052603260045260246000fd5b60006020828403121561046857600080fd5b813561047381610381565b9392505050565b60006020828403121561048c57600080fd5b8151801515811461047357600080fdfea2646970667358221220c5caa19f67ed4140024c8342b6cb8232d46d2ca934136c7800be8b47793d6d3c64736f6c63430008120033",
    "linkReferences": {}
  },
  "methodIdentifiers": {
    "flashLoan(address[],uint256[])": "db5dce16",
    "receiveFlashLoan(address[],uint256[],uint256[],bytes)": "f04f2707"
  },
  "id": 17
}