{
  "abi": [
    {
      "inputs": [
        {
          "internalType": "uint256",
          "name": "amount",
          "type": "uint256"
        }
      ],
      "name": "flashLoan",
      "outputs": [],
      "stateMutability": "nonpayable",
      "type": "function"
    },
    {
      "inputs": [
        {
          "internalType": "uint256",
          "name": "",
          "type": "uint256"
        },
        {
          "internalType": "uint256",
          "name": "fee1",
          "type": "uint256"
        },
        {
          "internalType": "bytes",
          "name": "data",
          "type": "bytes"
        }
      ],
      "name": "uniswapV3FlashCallback",
      "outputs": [],
      "stateMutability": "nonpayable",
      "type": "function"
    }
  ],
  "bytecode": {
    "object": "0x608060405234801561001057600080fd5b50610356806100206000396000f3fe608060405234801561001057600080fd5b50600436106100365760003560e01c80639ab603b91461003b578063e9cbafb014610050575b600080fd5b61004e6100493660046101cc565b610063565b005b61004e61005e3660046101e5565b610100565b738ad599c3a0ff1de082011efddc58f1908eb6e6d86001600160a01b031663490e6cbc306000848560405160200161009d91815260200190565b6040516020818303038152906040526040518563ffffffff1660e01b81526004016100cb9493929190610264565b600060405180830381600087803b1580156100e557600080fd5b505af11580156100f9573d6000803e3d6000fd5b5050505050565b33738ad599c3a0ff1de082011efddc58f1908eb6e6d81461012057600080fd5b600061012e828401846101cc565b905073c02aaa39b223fe8d0a0e5c4f27ead9083c756cc263a9059cbb3361015587856102d0565b6040516001600160e01b031960e085901b1681526001600160a01b03909216600483015260248201526044016020604051808303816000875af11580156101a0573d6000803e3d6000fd5b505050506040513d601f19601f820116820180604052508101906101c491906102f7565b505050505050565b6000602082840312156101de57600080fd5b5035919050565b600080600080606085870312156101fb57600080fd5b843593506020850135925060408501356001600160401b038082111561022057600080fd5b818701915087601f83011261023457600080fd5b81358181111561024357600080fd5b88602082850101111561025557600080fd5b95989497505060200194505050565b60018060a01b038516815260006020858184015284604084015260806060840152835180608085015260005b818110156102ac5785810183015185820160a001528201610290565b50600060a0828601015260a0601f19601f8301168501019250505095945050505050565b808201808211156102f157634e487b7160e01b600052601160045260246000fd5b92915050565b60006020828403121561030957600080fd5b8151801515811461031957600080fd5b939250505056fea26469706673582212207657445a43789aae5e549dc077441adc8b14c0a992666fc6857d67d415fa03a164736f6c63430008120033",
    "linkReferences": {}
  },
  "methodIdentifiers": {
    "flashLoan(uint256)": "9ab603b9",
    "uniswapV3FlashCallback(uint256,uint256,bytes)": "e9cbafb0"
  },
  "id": 20
}