{
  "abi": [
    {
      "inputs": [
        {
          "internalType": "uint256",
          "name": "amount",
          "type": "uint256"
        }
      ],
      "name": "flashLoan",
      "outputs": [],
      "stateMutability": "nonpayable",
      "type": "function"
    },
    {
      "inputs": [
        {
          "internalType": "address",
          "name": "sender",
          "type": "address"
        },
        {
          "internalType": "uint256",
          "name": "",
          "type": "uint256"
        },
        {
          "internalType": "uint256",
          "name": "amount1",
          "type": "uint256"
        },
        {
          "internalType": "bytes",
          "name": "",
          "type": "bytes"
        }
      ],
      "name": "uniswapV2Call",
      "outputs": [],
      "stateMutability": "nonpayable",
      "type": "function"
    }
  ],
  "bytecode": {
    "object": "0x608060405234801561001057600080fd5b50610359806100206000396000f3fe608060405234801561001057600080fd5b50600436106100365760003560e01c806310d1e85c1461003b5780639ab603b914610050575b600080fd5b61004e6100493660046101d8565b610063565b005b61004e61005e366004610279565b61014e565b3373b4e16d0168e52d35cacd2c6185b44281ec28c9dc1461008357600080fd5b6001600160a01b038516301461009857600080fd5b73c02aaa39b223fe8d0a0e5c4f27ead9083c756cc263a9059cbb336103e56100c2876103e86102a8565b6100cc91906102c5565b6100d79060016102e7565b6040516001600160e01b031960e085901b1681526001600160a01b03909216600483015260248201526044016020604051808303816000875af1158015610122573d6000803e3d6000fd5b505050506040513d601f19601f8201168201806040525081019061014691906102fa565b505050505050565b60405163022c0d9f60e01b815260006004820181905260248201839052306044830152608060648301526001608483015260a482015273b4e16d0168e52d35cacd2c6185b44281ec28c9dc9063022c0d9f9060c401600060405180830381600087803b1580156101bd57600080fd5b505af11580156101d1573d6000803e3d6000fd5b5050505050565b6000806000806000608086880312156101f057600080fd5b85356001600160a01b038116811461020757600080fd5b9450602086013593506040860135925060608601356001600160401b038082111561023157600080fd5b818801915088601f83011261024557600080fd5b81358181111561025457600080fd5b89602082850101111561026657600080fd5b9699959850939650602001949392505050565b60006020828403121561028b57600080fd5b5035919050565b634e487b7160e01b600052601160045260246000fd5b80820281158282048414176102bf576102bf610292565b92915050565b6000826102e257634e487b7160e01b600052601260045260246000fd5b500490565b808201808211156102bf576102bf610292565b60006020828403121561030c57600080fd5b8151801515811461031c57600080fd5b939250505056fea26469706673582212207d25baa5db341e63719ce6315f6c1074b48851dc62cdc8b481a4f376ba3dadc764736f6c63430008120033",
    "linkReferences": {}
  },
  "methodIdentifiers": {
    "flashLoan(uint256)": "9ab603b9",
    "uniswapV2Call(address,uint256,uint256,bytes)": "10d1e85c"
  },
  "id": 19
}